:100000000C9443050C948A050C948A050C94F20612
:100010000C948A050C948A050C948A050C948A0524
:100020000C948A050C948A050C9461280C9435294B
:100030000C94E7230C948A050C948A050C948A0589
:100040000C948A050C948A050C948A050C948A05F4
:100050000C948A050C944D240C948A050C948A0502
:100060000C948A050C948A050C948A050C948A05D4
:100070000C948A050C948A050C948A050C948A05C4
:100080000C948A050C948A050C948A050C948A05B4
:100090000C94DD050C948A050C948A050C948A0551
:1000A0000C948A050C948A050C948A0500000000C3
:1000B00000003E5B4F5B3E003E6B4F6B3E001C3EC4
:1000C0007C3E1C00183C7E3C18001C577D571C00D1
:1000D0001C5E7F5E1C0000183C180000FFE7C3E7B1
:1000E000FF00001824180000FFE7DBE7FF0030489E
:1000F0003A060E00262979292600407F05050700CB
:10010000407F05253F005A3CE73C5A007F3E1C1CBF
:100110000800081C1C3E7F0014227F2214005F5F31
:10012000005F5F0006097F017F00006689956A0015
:1001300060606060600094A2FFA2940008047E04E6
:10014000080010207E20100008082A1C0800081C47
:100150002A0808001E10101010000C1E0C1E0C00A7
:1001600030383E383000060E3E0E0600000000001B
:10017000000000005F000000000700070000147F7F
:10018000147F1400242A7F2A1200231308646200BB
:10019000364956205000000807030000001C224189
:1001A00000000041221C00002A1C7F1C2A000808B5
:1001B0003E080800008070300000080808080800A9
:1001C0000000606000002010080402003E51494514
:1001D0003E0000427F4000007249494946002141EB
:1001E000494D33001814127F10002745454539004A
:1001F0003C4A494931004121110907003649494922
:100200003600464949291E00000014000000004045
:1002100034000000000814224100141414141400C7
:100220000041221408000201590906003E415D59AF
:100230004E007C1211127C007F49494936003E4134
:10024000414122007F4141413E007F4949494100EF
:100250007F09090901003E41415173007F080808E8
:100260007F0000417F4100002040413F01007F08A6
:10027000142241007F40404040007F021C027F006A
:100280007F0408107F003E4141413E007F0909097B
:1002900006003E4151215E007F091929460026498A
:1002A0004949320003017F0103003F4040403F00C5
:1002B0001F2040201F003F4038403F0063140814B7
:1002C00063000304780403006159494D4300007F33
:1002D00041414100020408102000004141417F00DB
:1002E00004020102040040404040400000030708AF
:1002F00000002054547840007F284444380038449B
:1003000044442800384444287F003854545418008A
:1003100000087E0902001824241C78007F080404C9
:10032000780000447D4000002040403D00007F10E8
:100330002844000000417F4000007C0478047800DD
:100340007C08040478003844444438007C18242491
:100350001800182424187C007C0804040800485461
:100360005454240004043F4424003C4040207C00BA
:100370001C2040201C003C4030403C0044281028F9
:1003800044004C9090907C004464544C440000081D
:1003900036410000000077000000004136080000F0
:1003A0000201020402003C2623263C00000000005B
:1003B00000000000000040800000000000808080FD
:1003C000000000000000000000808000000000002D
:1003D00000000000000000000000000000000040DD
:1003E000E0E098880000000000000000000000002D
:1003F000000000000080000000008080000000007D
:10040000000000000000000000000000000000806C
:1004100000000000000000000000000000000000DC
:100420000080C0E020E0E0C00000E0F0F0F0E0EC90
:10043000EEF7F37020007C7C7C7E007E7E7E7F7FEA
:100440007F000080C0E07E5B4F5BFEC00000C0000C
:10045000DCD7DEDEDED7DC00C000000000000000DC
:100460000000000000000000000000000000C002CA
:10047000020606020001030000099B00242425FF58
:10048000242424000000001808E3E3FC0802020210
:100490000000E0DE000084888BFF06000000040CF2
:1004A000050507857C3800000684050506064BF027
:1004B000600000801435371CB6D90B0101040C0410
:1004C00004FE06030111111800040C0C0464D4FF8F
:1004D00064060606000898F8390FCC780048487082
:1004E00000000101F08F070300000F1F3F7F7F7F97
:1004F0007F7F3F1E0C001F1F1F3F003F3F3F7F7F3E
:100500007F00307B7F7830202030787F3B000300F5
:100510000F7F0F0F0F7F0F0003000000000000008F
:1005200000000000000000000000000000000103C7
:1005300002020203030100000002010202020203A0
:10054000020203020000000203010003730762605D
:10055000000001030001726203016102000000401B
:100560000203610000404000602103632302000099
:100570006060000001032202006000004000006093
:10058000200173020342001010000000000002016D
:10059000000000000003030103030100000000004D
:1005A0000000030707070000000000000000000033
:1005B000000000000000000000000000000000003B
:1005C000000000000000000000000000000000002B
:1005D000000000000000000000000000000000001B
:1005E00000000000000000000000000029001E00C4
:1005F0001F002000210022002B0014001A00080018
:1006000015001700E00004001600070009000A00AA
:10061000E1001D001B000600190005000000E200BB
:10062000E300095D2C002F0035002700260025007F
:10063000240023002D00130012000C0018001C00E1
:10064000340033000F000E000D000B00E5003800F1
:10065000370036001000110000002C012A000A5D4E
:10066000280030000100010001000100010001002C
:100670003A003B003C003D003E003F0035001E02BA
:100680001F022002210222020100010001000100DC
:100690000100010000000100010001000100010053
:1006A00001000100010001000100010045004400BB
:1006B0004300420041004000350227022602250285
:1006C00024022302310230022F022E022D020000EA
:1006D0000000010001000100010001000100010013
:1006E000010001000100010035001E001F00200074
:1006F000210022003A003B003C003D003E003F004C
:100700004000410042004300440045000000010059
:1007100001000100010001000100010001000100D1
:1007200001000100270026002500520024002300BC
:10073000000000004F005100500000003100300068
:100740002F002E002D002E020000010001000100EC
:100750000100010000000000000000000000000097
:100760000000000000000000000000000000000089
:100770000000000000000000000000000000000079
:100780000000000000000100010001000100000065
:100790000000000000000000000000000000000059
:1007A0000000000000000000C95CC75CC55CC25CC2
:1007B00000000000CA5CC85CC65CC35C00000000AE
:1007C00000000100010001000100000000047F3F63
:1007D0001F643214643214783C1E1E140A0522234E
:1007E000252628292A2C2D2F3032333536383A3B0E
:1007F0003D3E4042434547494A4C4E505153555760
:10080000595A5C5E6062646668696B6D6F7173757E
:1008100077797B7D7F81838587898A8C8E9092947E
:1008200096989A9C9E9FA1A3A5A7A8AAACAEAFB18B
:10083000B3B4B6B8B9BBBCBEBFC1C2C3C5C6C7C9D5
:10084000CACBCCCDCED0D1D2D2D3D4D5D6D7D7D88F
:10085000D9D9DADADBDBDBDCDCDCDCDCDDDDDDDDE1
:10086000DCDCDCDCDCDBDBDBDADAD9D9D8D7D7D6E9
:10087000D5D4D3D2D2D1D0CECDCCCBCAC9C7C6C5A0
:10088000C3C2C1BFBEBCBBB9B8B6B4B3B1AFAEACE6
:10089000AAA8A7A5A3A19F9E9C9A98969492908E91
:1008A0008C8A89878583817F7D7B79777573716F6A
:1008B0006D6B6968666462605E5C5A595755535146
:1008C000504E4C4A4947454342403E3D3B3A3836FC
:1008D000353332302F2D2C2A292826252322FFAA12
:1008E0007F554000010101010101010101020202E5
:1008F00002020202020203030303030303030404CC
:100900000404040404050505050506060606060795
:100910000707070708080808090909090A0A0A0B4E
:100920000B0B0C0C0C0D0D0D0E0E0E0F0F0F1010EF
:100930001111111212131314141515161617171876
:100940001819191A1A1B1B1C1D1D1E1E1F202021E1
:100950002222232424252626272829292A2B2C2D28
:100960002D2E2F30313232333435363738393A3B49
:100970003C3D3E3F404142434445464748494A4C3E
:100980004D4E4F50515354555658595A5B5D5E5F0A
:10099000616264656668696B6C6D6F7072737577A0
:1009A000787A7B7D7E8082838587888A8C8E8F9102
:1009B000939596989A9C9EA0A2A3A5A7A9ABADAF2C
:1009C000B1B3B5B7BABCBEC0C2C4C6C9CBCDCFD116
:1009D000D4D6D8DBDDDFE2E4E7E9EBEEF0F3F5F8BF
:1009E000FAFDFF0403300000000E034C0069006CA8
:1009F000007900350038000000120346005F0059FE
:100A00000055005500430048004900000004030958
:100A10000409022200010100A0FA090400000103F8
:100A20000101000921110100012240000705810395
:100A300008000A120110010000000851FC580000D3
:100A4000010102030105010906A101050719E029B9
:100A5000E71500250195087501810295017508814A
:100A6000010507190029FF150026FF0095067508E6
:100A70008100050819012905950575019102950167
:100A800075039101C00011241FBECFEFDAE0DEBF75
:100A9000CDBF04B603FE27C0809134049091350485
:100AA000A0913604B09137048730904BA740B04BEB
:100AB000D1F410923404109235041092360410923E
:100AC000370414BE84B7877F84BF0FB6F894A89507
:100AD00080916000886180936000109260000FBE7A
:100AE000E0E0F8E3099512E0A0E0B1E0E4E9FDE51B
:100AF00002C005900D92A834B107D9F724E0A8E40C
:100B0000B2E001C01D92A433B207E1F70E94A42510
:100B10000C94902E0C94000083E390E02091BC0094
:100B200027FD02C00197D1F708951092B9008CE01B
:100B30008093B8000895CF93C82F84EA8093BC00B7
:100B40000E948C058091B900887F883041F08091A7
:100B5000B900887F803119F081E0CF910895C0936A
:100B6000BB0084E88093BC000E948C058091B90092
:100B7000887F883129F08091B900887F803461F7BF
:100B800080E0EBCF84E98093BC0083E390E0209188
:100B9000BC0024FD02C00197D1F708958093BB00EB
:100BA00084E88093BC000E948C059091B900987FE6
:100BB00081E0983209F480E008951F921FB61F92D9
:100BC00011248F939F93EF93FF938091B900887FB7
:100BD0008038C1F038F4882309F44BC0803679F0AE
:100BE00081E022C0883A11F0883BD1F7E0914902B8
:100BF000F0E0E65BFC4F80818093BB0031C0109237
:100C00004802EECF80914802811122C08091BB0042
:100C100080934902809149028031C0F010924902CC
:100C200080E091E0909348029091BC008295880FFB
:100C3000880F807C892B85688093BC00FF91EF91A1
:100C40009F918F911F901FBE1F90189581E0E9CF53
:100C5000E0914902F0E08091BB00E65BFC4F8083AD
:100C60008091490290E001968F7099278093490204
:100C7000B7CF1092BC00B4CF8EE14A9B02C0815026
:100C8000E1F74A9BFECF08955A9880E28A95F1F7E2
:100C90005A9A0895FC013BE03A95F1F720E090E084
:100CA00080E031E040E14A95F1F7880F4A9B02C0AD
:100CB0008160232742E04A95F1F7000040E14A9520
:100CC000F1F79F5F6913EECF90E19A95F1F799B133
:100CD00032E03A95F1F7000040E14A95F1F792FBD6
:100CE000992790F992272081920F90830895EF928F
:100CF000FF920F931F93CF93DF930F92CDB7DEB781
:100D000019828C017C01E60EF11C0E151F0561F4A1
:100D100081E09981911180E00F90DF91CF911F9137
:100D20000F91FF90EF9008950E943C0668E0CE017D
:100D300001960E944A06F80181938F01E6CF9093B5
:100D40004C0280934B0260934A02529A5A9A089539
:100D500090934C0280934B0260934A0252985A9AA5
:100D6000EA9AE9E6F0E080818F7C80830895615003
:100D7000770B91E001C0990F6A95EAF720E031E026
:100D8000911108C0222391F05A9A80E28A95F1F7D6
:100D90005A980895492F482339F05A9A232740E258
:100DA0004A95F1F79695ECCF5A98F9CF5A98EDCF2E
:100DB000FF920F931F93CF93DF93EC018C01060FEB
:100DC000111DC017D10731F4DF91CF911F910F9101
:100DD000FF900895F9900E94440668E08F2D0E94CC
:100DE000B706EFCF1F920F920FB60F9211240F93F9
:100DF0001F932F933F934F935F936F937F938F93A3
:100E00009F93AF93BF93EF93FF93CF93DF930F9293
:100E1000CDB7DEB719820E943C0667E0CE0101968D
:100E20000E944A06082F069506950695982F9295DA
:100E30009570202F2570920F292F237096959695E7
:100E40008770920F891344C08981811141C08091BC
:100E50004A028017E8F120E12A95F1F75A9A529A4E
:100E600082E08A95F1F700C0A8E00A9FC001112432
:100E700000914B0210914C02080F191F5A98F8016B
:100E80006581662321F0868197810E94D8060E94A1
:100E90004406F0E1FA95F1F75A9852985A9A20E1EF
:100EA0002A95F1F7D80112966C911297662331F1C9
:100EB00013968D919C910E947706D801ED91FC913B
:100EC000882311F088E001C082E080830E943C0604
:100ED0000F90DF91CF91FF91EF91BF91AF919F91D3
:100EE0008F917F916F915F914F913F912F911F91C2
:100EF0000F910F900FBE0F901F901895ED91FC91E0
:100F0000E1CF0F931F93CF93DF9320914A022817CD
:100F100019060CF471C08C0193E0000F111F9A9513
:100F2000E1F7C0914B02D0914C02C00FD11FF89451
:100F3000529A5A9825E02A95F1F70000982F969535
:100F400095708570980F892F837096959695980F58
:100F5000092B0E94440600C067E0802F0E94B7065C
:100F600080E18A95F1F752985A9A4A9B17C087E018
:100F700090E04A9915C06D81662321F18E819F8191
:100F80000E94770681111EC0529A5A9AE881F9810F
:100F900082E08083789482E090E00DC000C0E5CFCD
:100FA000019771F4529A5A9AE881F98181E080831D
:100FB000789481E090E0DF91CF911F910F91089597
:100FC00000C0D7CF0E943C0620E22A95F1F75A983C
:100FD000529A80E18A95F1F76A81662321F08B812C
:100FE0009C810E94D8060E944406E881F981108203
:100FF000789490E080E0DFCF84E090E0DCCFCF9386
:10100000C82F88E70E949B05882311F0C0E00BC021
:1010100080E00E94CE058111F9CF8C2F0E94CE0571
:10102000C1E08111F3CF0E94C2058C2FCF910895AA
:10103000CF93C62F0E94FF07882321F08C2FCF91DA
:101040000C94FF0780E0CF910895CF93C62F0E94A4
:10105000FF07882349F080E00E94FF07882321F0E2
:101060008C2FCF910C94FF0780E0CF9108958EEAEA
:101070000C94FF078FEA0C94FF070F931F93CF93F5
:10108000DF93EC018C010C5A1F4FD801ED91FC91BC
:10109000119760838D919C91119701968D939C93EC
:1010A0008C1B9D0B84359105B9F4BE016B5E7F4F9F
:1010B0004FE350E0CE010E94492BCE01CF96F801BC
:1010C0009183808345E150E060E270E0DF91CF9151
:1010D0001F910F910C945B2BDF91CF911F910F917A
:1010E00008951F93CF93DF93EC01FC01EA5AFF4F61
:1010F00081E080836A30B1F43297808191818C1BCA
:101100009D0B65E170E00E94092B182F153120F02E
:10111000DF91CF911F91089560E2CE010E943D08BA
:101120001F5FF4CFCE01DF91CF911F910C943D084A
:10113000EF92FF920F931F93CF93DF937C01EB010C
:10114000FB0101900020E9F78F0101501109C01740
:10115000D10738F0DF91CF911F910F91FF90EF9061
:1011600008956991C7010E947108F1CFCF92DF9273
:10117000EF92FF920F931F93CF93DF93CDB7DEB71C
:101180007C010DB71EB7DB010D900020E9F7CD0102
:10119000861B970B01962DB73EB7281B390B0FB650
:1011A000F8943EBF0FBE2DBFADB7BEB711966D010F
:1011B0007F936F932AE731E03F932F939F938F9311
:1011C000DF92AF930E94692BB601C7010E94980875
:1011D0002DB73EB7285F3F4F0FB6F8943EBF0FBE06
:1011E0002DBF0FB6F8941EBF0FBE0DBFDF91CF917C
:1011F0001F910F91FF90EF90DF90CF900895CF93C4
:10120000DF93EC0144E550E060E270E00E945B2B6C
:10121000FE01EC5AFF4FD183C083CA5ADF4F81E0F1
:101220008883DF91CF9108957F928F929F92AF92A2
:10123000BF92CF92DF92EF92FF920F931F93CF93C3
:10124000DF938C010E94172490934E0280934D02ED
:101250000E943A0863E082E20E9425088823C9F1CF
:101260006DE781E20E942508882399F188E70E94B2
:101270009B0581112EC080E40E94CE05811129C0FA
:101280007801480184E5880E911C96E0792E57017B
:10129000D12CF501C1915F01C79DE0011124C45516
:1012A000DF4F86E0C82EFE0184910E94CE05CA94CD
:1012B0002196C110F8CFD394F5E1DF12EACF85E192
:1012C000E80EF11C8E149F0411F7F801EA5AFF4F43
:1012D0001082DF91CF911F910F91FF90EF90DF90DF
:1012E000CF90BF90AF909F908F907F900C94C2054D
:1012F0008AE593E00C9414091F93CF93DF93C82FD2
:101300000E9495058EEA0E94FF07811106C0C0E089
:101310008C2FDF91CF911F91089560E885ED0E9499
:1013200018088823A1F36FE188EA0E94180888232F
:1013300071F360E083ED0E941808882341F380E494
:101340000E94FF07882319F364E18DE80E941808C2
:101350008823E9F260E080E20E9418088823B9F24D
:10136000CC2309F465C080EA0E94FF07882379F244
:1013700080EC0E94FF07882351F262E08AED0E9410
:101380001808882321F26FE881E80E941808882352
:1013900009F4BDCF61EF89ED0E941808882309F494
:1013A000B6CF60E48BED0E941808882309F4AFCF14
:1013B00084EA0E94FF07882309F4A9CF86EA0E94E5
:1013C000FF07882309F4A3CF8EE20E94FF0788233A
:1013D00009F49DCF8FEA0E94FF07882309F497CF75
:1013E00060E081E80E941808C82F882309F48FCF95
:1013F0008AE593E00E94FF0863E082E20E942508EC
:10140000882389F06FE781E20E942508882359F03C
:1014100088E70E949B05811106C080E40E94CE05EA
:1014200014E08823A9F00E94C2050E94780970CFB9
:1014300081EA0E94FF07882309F469CF88EC99CFDD
:1014400080E00E94CE05DF5FD038D1F7115011F057
:10145000D0E0F6CF1092B003E6CF0E94A90D8091A4
:10146000B003811104C080910001882321F00E9403
:1014700078091092000180914D0290914E020E94D5
:10148000232481369A4E10F00C943708089581E099
:10149000809300010895CF93DF93A4E8B1E049E879
:1014A00051E0C1E0D0E08D91E82FE295EF70F0E0DF
:1014B00061A18F709E0101C0220F8A95EAF7922FD9
:1014C0009095962391A382A1822B82A34A175B0752
:1014D00051F7DF91CF9108950C945A0D0C94680D3B
:1014E0000E94FB0B0E944B0AAEE7B1E061E070E0A6
:1014F0008D91E82FE295EF70F0E041A18F709B0194
:1015000001C0220F8A95EAF7922F9095942391A318
:1015100082A1822B82A381E0A438B80749F7209AE0
:10152000559A289A5D9AE9E5F2E0AFE4B2E01192AB
:101530001D9282E0E336F807D1F70E94DD0B80931D
:1015400063020C94730E9F92AF92BF92CF92DF9280
:10155000EF92FF920F931F93CF93DF93809102013D
:10156000C5E0D0E0882311F0D0E0C0E084E8C82EC8
:1015700081E0D82EAE01415B5D4F7A018A01AA2439
:10158000A394B12C25E0922EF60181916F01E82FF2
:10159000E295EF70F0E021A18F70A50102C0440F29
:1015A000551F8A95E2F7CA01922F982B91A392A119
:1015B0008095892382A350EA5A95F1F7EEE7F1E08E
:1015C00020E050E040E03191A32FA295AF70B0E051
:1015D00090968C9190E03F7002C0959587953A95D2
:1015E000E2F780FD39C0C501042E01C0880F0A94BE
:1015F000EAF7282B4F5F5F4F4630510521F7F8017E
:101600008081821719F02083909201010E944B0A79
:101610000F5F1F4FF9E8CF16F1E0DF0609F0B4CFF6
:1016200080910101882359F0815080930101882322
:10163000A9F08FE99FE00197F1F700C0000081E079
:10164000DF91CF911F910F91FF90EF90DF90CF909E
:10165000BF90AF909F90089580E0CBCFC75ADD4FE9
:10166000F70191917F0199938F5F8530C9F7E7CF9B
:10167000CF93DF9320910201D0E0C0E0222311F04C
:10168000C5E0D0E00E94160C009731F0029709F4F3
:10169000289881E090E00BC0289ADE01A75ABD4F40
:1016A00025E0E0E7F2E001900D922A95E1F7DF9165
:1016B000CF9108950E94A30A80910201E5E0F0E035
:1016C000882311F0F0E0E0E0E75AFD4F90E080E081
:1016D00020E0DC01A059BD4F4C913191431321E032
:1016E0003C93019685309105A1F780916802820FA5
:1016F000809368020895CF93DF93809163028823DB
:1017000009F440C00E94A30A80910201C5E0D0E024
:10171000882311F0D0E0C0E0C75ADD4F45E050E02B
:10172000BE018BE692E00E943C2B25E0FE01ABE679
:10173000B2E001900D922A95E1F70E94380B892BB7
:10174000E9F05D98809164028F5F80936402863037
:1017500078F080910201F0E0E0E0882311F0E5E00C
:10176000F0E0E75AFD4F1082118212821382148238
:101770000E947B0E81E0DF91CF9108955D9A1092D7
:101780006402F6CF0E945A0B80910201B0E0A0E003
:10179000882311F0A5E0B0E0A75ABD4F85E0EBE645
:1017A000F2E001900D928A95E1F7E2CFE82FF0E0A8
:1017B000E75AFD4F80810895089580916502811157
:1017C00011C08091D80080618093D8008AE18A9509
:1017D000F1F700C09091D900892F817090FF82E0CD
:1017E0008093650281E090916502913009F080E07C
:1017F00008950C94DD0B0E94F90B809302010E9466
:10180000DD0B882321F00E940A0C789408950E9431
:10181000100CFBCF63E070E083E091E00C949F0636
:1018200063E070E083E091E00C94A8060F931F93AF
:10183000CF93DF938C0190911C0180911B01D0E02C
:10184000C0E0981759F082E090E00E948107EC0117
:10185000892B21F480911B0180931C0180916602E9
:1018600090916702082B192B90E080E0012B11F07A
:1018700081E090E00E948107892B71F480916802D9
:1018800080931B011092670210926602CE01DF91D5
:10189000CF911F910F91089581E090E0909367029E
:1018A00080936602F3CF8091280390912903A09141
:1018B0002A03B0912B0384309105A105B105E1F114
:1018C00028F50097A105B10571F16AEA71E082304F
:1018D0009105A105B10549F1BF93AF939F938F93F4
:1018E00085EC91E09F938F931F9288E18F9381EB1A
:1018F00093E09F938F930E94692B8DB79EB70A96B2
:101900000FB6F8949EBF0FBE8DBF13C088309105EF
:10191000A105B10529F08E309105A105B105E1F6CB
:1019200067EB71E002C06EE871E081EB93E00E942A
:10193000622B81EB93E008956DE971E0F6CF8DE1C4
:1019400091E00895CF93C0E28C33910520F4FC011F
:10195000E951FE4FC0811F92CF939F938F93FB015C
:1019600080811F928F9381811F928F9386ED91E0EA
:101970009F938F931F9288E18F938CE892E09F93BF
:101980008F930E94692B8DB79EB70E960FB6F89471
:101990009EBF0FBE8DBF80917502909176024497D5
:1019A00061F41092760210927502E7E7F2E080E2AD
:1019B000819392E0EB38F907D9F780917502909105
:1019C0007602FC01E958FD4FC083019690937602A0
:1019D00080937502CF9108958CE892E0089587E78F
:1019E00092E008950F931F93CF93DF93EC018B0147
:1019F0000E94470A882351F0B801CE010E94CD0D04
:101A00008170DF91CF911F910F91089580E0F8CF01
:101A100008958F929F92AF92BF92CF92DF92EF92F2
:101A2000FF920F931F93C12CD12C7601C394970181
:101A3000860104C0000F111F221F331F6A95D2F7C1
:101A40004601570104C0880C991CAA1CBB1C8A952E
:101A5000D2F7D501C401802B912BA22BB32B00917F
:101A600028031091290320912A0330912B03082386
:101A700019232A233B2380179107A207B30769F490
:101A8000842F1F910F91FF90EF90DF90CF90BF9028
:101A9000AF909F908F900C946D20842F1F910F9189
:101AA000FF90EF90DF90CF90BF90AF909F908F907E
:101AB0000C948E208091CB03869590E09093CA037E
:101AC0008093C9030E94DD0B91E089270C947C0967
:101AD0000C942D0ACF93DF93EC018091630288234D
:101AE000A1F00E94530CBC01CE010E94B6080E94D6
:101AF000EC0CBC01CE010E94B6080E94EF0CBC01A8
:101B0000CE01DF91CF910C94B6080E949F0CBC01CE
:101B1000CE01DF91CF910C9498080F931F93CF9330
:101B2000DF93EC018B0144E550E00E943C2B892BB4
:101B300059F084E5F801DE0101900D928A95E1F7F4
:101B4000CA5ADF4F81E08883DF91CF911F910F91B7
:101B50000895CF93DF93CDB7DEB7C755D1090FB640
:101B6000F894DEBF0FBECDBFCE0101960E94FF08E4
:101B7000CE0101960E946A0DBE016F5F7F4F8AE51C
:101B800093E00E948D0DC95ADF4F0FB6F894DEBF67
:101B90000FBECDBFDF91CF9108950F931F93CF93C9
:101BA000DF938C01EB018A81882319F0C8010E9420
:101BB000A20C09308DE5180709F150F408301D45D5
:101BC000A9F0C1E08C2FDF91CF911F910F91089563
:101BD0000A308DE51807F1F00B301D4591F7CA81E9
:101BE00083E0CC2311F10E946D2006C0CA81CC2372
:101BF00049F380E00E94600EC0E0E4CFCA8181E03A
:101C0000CC2359F00E946D2043E062E081E00E9405
:101C1000090DF2CFCA8182E0F3CF0E948E2043E00B
:101C200062E081E00E94090DCDCF0E948E20CACFD4
:101C300081E0089508950C941A0E1F93CF93DF93BB
:101C400000D000D00F92CDB7DEB749835A836B83A3
:101C50002091C70289819A8121111BC06623A9F0B6
:101C60000E946021182F682F89819A810E94092182
:101C700069817A81812F0F900F900F900F900F90B4
:101C8000DF91CF911F910C94DA0E0E943721182F0B
:101C9000EFCF0E94602169817A81EDCFFC01408104
:101CA00051816281738184810C941D0ECF93DF93E7
:101CB000EC010E944E0EBE01DF91CF910C941B0EE1
:101CC000CF93DF93C1E0D0E002C0CC0FDD1F8A9537
:101CD000E2F78C2F0E94AA22BE0190E080E0DF9103
:101CE000CF910C940B200E949722811102C00E9478
:101CF00039230C946C0A0C946E0A81E008950C94BC
:101D00007D0ECF93C82F0E94080D8C2FCF910C947D
:101D10007F0E08950E94D71C0E94890E2FEF84E346
:101D20009CE0215080409040E1F700C000000C94FE
:101D300071240F931F93CF93DF93EC010E944E0EFB
:101D40008C01BE010E94F20C882359F1BE01C8012A
:101D50000E948917882329F1BE01C8010E94CA1771
:101D60008823F9F0BE01C8010E94ED188823C9F04C
:101D7000BE01C8010E946D16882399F08A818823CC
:101D800039F001158CE5180751F00E3D1C4579F02E
:101D9000CE01DF91CF911F910F910C94180E0E94EC
:101DA0008A0E80E0DF91CF911F910F9108950E94DC
:101DB0003923F7CF972F70E026E0929F600D711DB9
:101DC0001124FB019CE3899FE00DF11D1124EE0F0E
:101DD000FF1FE451FA4F859194910895CF93DF93BB
:101DE0000E94DA0E0E94C10FEC01811523E59207D3
:101DF00090F5811532E5930708F096C08115904261
:101E0000C8F4C11581E0D80788F4C53AD10548F473
:101E1000C430D10558F4C130D10541F0D0E0C0E064
:101E200005C0CE01805E91090897C0F7CE01DF9111
:101E3000CF910895C11591E5D90708F070C0C1157B
:101E400020E5D20708F04EC0C11530E4D30730F3C7
:101E5000DF70D06AEBCF811546E59407F0F4C11529
:101E600085E5D80708F075C0C11594E5D90708F0D5
:101E70006BC0CE018370992721E030E002C0220FB1
:101E8000331F8A95E2F7C695C69590E2C99FE00197
:101E90001124C22BD32BDA68C9CF81152AE592070A
:101EA00078F4811539E5930708F05EC0811548E59F
:101EB000940708F4B3CFD82FCC27C06FD06AB6CF21
:101EC00090568115904208F0A9CF8D2F8F710E94F6
:101ED000581090E0982F882788279F719C012C2B01
:101EE000E90140C0CE01E4E096958795EA95E1F7D7
:101EF00083702C2F26952695237040E2249F900115
:101F00001124382B8C2F8370C1E0D0E002C0CC0F9D
:101F1000DD1F8A95E2F7C22BD32BDC6887CFDC2F3D
:101F2000CC27C16FD06A82CF8370992721E030E03F
:101F300002C0220F331F8A95E2F7C695C69580E24C
:101F4000C89FE0011124E7CFDC2FCC27C46FD06AF3
:101F50006DCF8C2F0E945810C82FD0E0DC2FCC27DB
:101F6000CC27DF71D06262CF8F700E94581034E0AE
:101F7000D695C7953A95E1F7CF709C2FEC01D069C3
:101F800055CF82389105B1F1B0F48133910509F450
:101F900075C048F48932910509F469C08A32910507
:101FA00009F473C008958533910509F459C0893344
:101FB000910501F10895833E9105A9F138F4803E21
:101FC0009105F9F0823E910549F10895863E91050B
:101FD000A9F1873E9105C9F1843E910519F520913B
:101FE000260421FF1FC08091250484FD14C087EEC4
:101FF00090E00895209125042370A1F080EE90E0F8
:1020000008952091250420FD47C03091260430FF1B
:1020100009C024FF44C090E080E004C02091250462
:1020200022FDF7CF08952091250422FD3BC0309179
:10203000260430FDE3CF24FFF5CFEDCF209125041A
:1020400023FFF0CF24FDE7CFD2CF2091250423FD3D
:102050002CC03091260431FFEECF84EE90E008953D
:102060002091250425FFDECF89E290E0089520919C
:10207000250425FFD7CF85E390E00895209125041E
:1020800026FFD0CF8AE290E008952091250426FF14
:10209000C9CF81E390E0089589E390E0089583EE4D
:1020A00090E0089582EE90E0089586EE90E0089525
:1020B0009091250492FF06C0282F28712830F9F44A
:1020C000877F846093FF06C0282F28712831F1F4A0
:1020D000877E84612091260420FF06C0382F387146
:1020E0003830D9F4877F816021FF06C0282F2871FE
:1020F0002831D1F4877E816194FD877E0895282F51
:1021000024712430F9F68B7F8860DCCF282F24716E
:10211000243101F78B7E8861DDCF382F317131306A
:1021200019F78E7F8860E0CF282F2171213121F7A8
:102130008E7E8861E1CFAF92BF92CF92DF92FF9205
:102140000F931F93CF93DF93362F472FE82FF0E0A5
:10215000ED51F74F71110DC06491762F862FDF91ED
:10216000CF911F910F91FF90DF90CF90BF90AF90D4
:102170000895C72FD0E02491F22E022F10E056E0F0
:10218000659FC0011124EFEFF0E0BF010E94F52A26
:10219000832F90E0880F991F35E5369FD001379F38
:1021A000B00D11248A1B9B0B982F990F980F6F016C
:1021B000CC1ADD0AC09ED001C19EB00DD09EB00DDC
:1021C00011248B2F949FA0011124452F55276F01B7
:1021D000C41AD50AC09EA001C19E500DD09E500DBC
:1021E00011245F01A91AB108AC9E6001AD9ED00C0C
:1021F000BC9ED00C1124CD2CDD24EC19FD09E09FF0
:10220000E001E19FD00DF09FD00D1124ED2F623041
:102210007105A1F048F46115710569F0613071052F
:1022200089F0EB2F852F07C06430710571F088F0BD
:1022300066307105B1F76E2F722F91CFE22F2B2FE1
:102240008D2FF9CFE22F252FF6CFEB2F822F2D2FB9
:10225000F2CF2B2F8F2DE52FEECF0895CF93DF9365
:10226000762FE901682F842F0E949B107983688361
:102270008A83DF91CF910895493708F048E70C949D
:102280002E118091CB03982F9E7F61F48170826024
:102290008093CB038091CE03893718F088E7809331
:1022A000CE0308958A34B0F381708864F1CF88E05A
:1022B00090E00C94192ECF92DF92EF92FF926B0177
:1022C0007C010E944111B701A60188E090E0FF90D7
:1022D000EF90DF90CF900C94372EEBECF3E083E09F
:1022E000808311828FEF828388E7838314826081E9
:1022F0007181828193810C945B118091CB0380FF6B
:1023000002C08695089580E008958091CF038330C0
:1023100018F48F5F8093CF036091CB037091CC034F
:102320008091CD039091CE030C945B118091CF03EB
:10233000882319F081508093CF036091CB03709173
:10234000CC038091CD039091CE030C945B116091EE
:10235000610170E08091CB0380FF0AC08091A802E8
:1023600023E0829FC001112480539C4F0C941917C5
:102370008091A7029091600123E0829FF0011124D7
:10238000E053FC4F891750F71182108212828F5F41
:102390003396F8CF9091CB0390FF14C09091A70291
:1023A0002091600133E0939FF0011124E053FC4F32
:1023B000921710F00C94A7118183608342839F5F72
:1023C0003396F6CF0895CF93DF9300D00F92CDB719
:1023D000DEB79091CB0390FF0AC09E012F5F3F4F65
:1023E0000E943C114B8169818A810E94CA110F9021
:1023F0000F900F90DF91CF910895CF93DF93EC0171
:10240000EC81F0E0E252F84F4491EBECF3E06281B2
:1024100081810E94E3118C818F5F8C83DF91CF914A
:102420000895CF93DF93EC01EBECF3E043816281FD
:102430008C810E94E3118C818F5F8C83DF91CF911F
:1024400008950F931F93CF93DF9300D00F92CDB7D2
:10245000DEB78C018091A40281110AC09E012F5F1A
:102460003F4F48E76FEF0E943C118A818093A4029E
:10247000F8016481613069F08091A40240E0662334
:1024800061F040E0623011F44091A40280E060E02D
:1024900004C06091A40240E080E00E94CA11F801EB
:1024A000848190E0019663E070E00E94092B8483B0
:1024B0000F900F900F90DF91CF911F910F91089582
:1024C000AF92BF92CF92DF92EF92FF920F931F9342
:1024D000CF93DF9300D00F92CDB7DEB7182FF62E33
:1024E000042FE22E9091CB0390FF29C0E92FE695AF
:1024F000AE2FB0E0AD5DBD4F8C918093B0029E7F5A
:10250000923059F59E012F5F3F4F812F0E943C1161
:102510004B8169818A810E94CA111093CC03F09289
:10252000CD030093CE03EE2051F06091CB03709168
:10253000CC038091CD039091CE030E945B110F904C
:102540000F900F90DF91CF911F910F91FF90EF901F
:10255000DF90CF90BF90AF900895823019F4009132
:10256000CE03DBCF863019F41091CC03D6CF89305F
:10257000D9F3893191F6E9518E2F8170D82EE695E5
:10258000F0E0E252F74FA590B490C12CBB246091CB
:102590005F01C61618F00E94A711BFCF2C2D30E0A6
:1025A000A29EC001A39E900DB29E900D112470E0DA
:1025B0000E94F52A812FD11013C0860F4091A702E7
:1025C000420F532F511D9A01220F331F240F351F25
:1025D00020533C4F402F6F2D0E943C11C394D7CF06
:1025E000861BECCFEBECF3E09181282F43816281D5
:1025F0008AE0890F0C94601281E00C94F212EBECEB
:10260000F3E09181282F4381628186EF890F0C943A
:10261000601281E00C94FF12EBECF3E0628121E1A7
:10262000620F08F46FEF282F438181810C946012B0
:1026300081E00C940C13EBECF3E0628121E1621B6E
:1026400008F460E0282F438181810C94601281E0BE
:102650000C941B13EBECF3E0438121E1420F08F4EF
:102660004FEF282F628181810C94601281E00C94DD
:102670002A13EBECF3E0438121E1421B08F440E034
:10268000282F628181810C94601281E00C943913AF
:1026900020E00C946012EF92FF921F93CF93DF9390
:1026A000EC0110E0EE24EA94F12C60915F01161722
:1026B00070F00E94A7119A818C8190FF27C08F5FD4
:1026C0008C83DF91CF911F91FF90EF90089520911F
:1026D000A702422F410F5527551FCA019A01220F09
:1026E000331F280F391F20533C4F70E0C7010E9451
:1026F000092B962F8C814091CE036091CD03199FB9
:10270000800D11240E943C111F5FCFCF8150D8CF84
:10271000AF92BF92CF92DF92EF92FF920F931F93EF
:10272000CF93DF93FC0182810FEF80FF01E010E087
:102730004BE1A42E80915F011817C8F00E94A711E9
:102740008091A602013009F055C0811102C080912C
:102750005F0181508093A602DF91CF911F910F916D
:10276000FF90EF90DF90CF90BF90AF900895C09111
:10277000A702C12ED12CCC0DDD2DD11DCE01880F8D
:10278000991FC80FD91FC053DC4F198218821A82B3
:1027900034E0E32EF12CB12C8091A6028B0D8C310C
:1027A0001CF16A2D0E94E72A892F082E000C990B34
:1027B000C816D90691F48091CE038E9DA0018F9DFD
:1027C000500D112455954795559547959E0160915B
:1027D000CD038091CC030E943C11B00EF1E0EF1AC2
:1027E000F108D1F61F5FA6CF87FFDFCF90915F0181
:1027F000890FDBCF90E0019660915F0170E00E944D
:10280000092BA8CF0F931F93CF93DF938091A7023B
:102810009091600123E0829FF0011124E053FC4F6E
:10282000891740F1C0E0D3E060915F01C61740F125
:102830000E94A71120915D018091A502820F8093D3
:10284000A50290915E01920F90935E01191654F4C7
:10285000082E000C990B40915F014150550B8417D5
:1028600095071CF0219520935D01DF91CF911F9179
:102870000F9108951182108212828F5F3396D0CF0C
:102880000C2F10E070E0C8010E94092B2091A702D4
:10289000820F482F50E02091A502022E000C330B2E
:1028A00002171307BCF020915E01022E000C330BBF
:1028B000201731077CF08D9F9001112420533C4F4D
:1028C0004091CE036091CD038091CC030E943C11D6
:1028D000CF5FAACFFA01EE0FFF1FE40FF51FE05301
:1028E000FC4F118210821282F3CF0F931F93CF936C
:1028F000DF938C01FC018481958101968170992779
:1029000095838483C0E0D5E580915F01C81730F0DE
:10291000DF91CF911F910F910C94A7112091A702E5
:10292000422F4C0F5527551FCA019A01220F331F02
:10293000280F391F20533C4F8C2F8695F801448176
:102940005581840F952F911D81704091CE03609128
:10295000CD038D9F802D11240E943C11CF5FD4CFD9
:102960000F931F93CF93DF93EC0110E000E0909161
:102970005F019017110609F06CF40E94A7118C8179
:1029800090E00196817099278C83DF91CF911F9100
:102990000F9108952091A702A801420F511D9A019D
:1029A000220F331F240F351F20533C4F4C81609161
:1029B000CD038091CC0396959017110651F04CF001
:1029C000442349F04091CE030E943C110F5F1F4FFA
:1029D000CECF4423B9F340E0F7CFEBECF3E08081B6
:1029E0008E7F808360817181828193810E945B11DF
:1029F0001092B1022FEF80E792E02150804090408A
:102A0000E1F700C000000C94A7116091CB0366951C
:102A100070E04BE050E082E691E00E942F2B892B82
:102A200019F481E08093B1020E9417249093AA02C6
:102A30008093A90208959091CB0390FF35C09170C7
:102A4000811128C092609093CB03662351F060916E
:102A5000CB037091CC038091CD039091CE030E9463
:102A60005B116091CB03669570E04BE050E082E62D
:102A700091E00E942F2B892BA1F01092B10281E0EE
:102A80008093AC024091CE036091CD038091CC0342
:102A90000C944813853210F09864D5CF880F982B8A
:102AA000D2CF0E940515EBCF0895682F9091CB03EC
:102AB000969581E0890F853208F081E00C941B1512
:102AC00081E00C945515682F9091CB0396958FEF6C
:102AD000890F09F484E20C941B1581E00C946315B2
:102AE00061E00C941B15EBECF3E080818160808346
:102AF00086950C9470158091CB0380FD0C94ED1499
:102B00000C94731560E00C941B158091AF02811139
:102B10002EC00E949722811104C00E9439230E9476
:102B20006D110E9457116093CB037093CC03809377
:102B3000CD039093CE036E7F61F40E946D110E94CD
:102B400057116093CB037093CC038093CD03909384
:102B5000CE030E9441111092B1028091CB0380FFFD
:102B600003C086950E94821581E08093AF0208958C
:102B70000F931F93CF93DF938091B102882309F4C1
:102B80008DC08091B002E091CB03E695E81BE09305
:102B9000AB028230C9F5F0E0E652F84FE491CE2F57
:102BA000D0E00DEF11E18091AC02882389F0109202
:102BB000AC020E9417249E0120953095820F931F2E
:102BC0009093AA028093A9021092AE021092AD02D5
:102BD0008091A9029091AA020E9423248C179D073C
:102BE00008F45CC0E091A902F091AA02CE0FDF1FA9
:102BF000D093AA02C093A90289EA92E0F801DF917A
:102C0000CF911F910F910994863049F4F0E0E95279
:102C1000F84FE491CE2FD0E001E112E1C4CF89302A
:102C200051F4E695F0E0EC52F84FE491CE2FD0E06D
:102C30000BE413E1B8CF8F3051F4E695F0E0EF529A
:102C4000F84FE491CE2FD0E008E813E1ACCF853106
:102C500049F4F0E0E253F84FE491CE2FD0E002E0E7
:102C600014E1A1CFC8EED3E005E714E1883109F4FF
:102C70009ACF833239F4ECECF7E0C591D49101E2BC
:102C800012E191CFC4EFD1E000EB14E1843209F4FA
:102C90008ACFC0EDD7E00DE211E185CFDF91CF9172
:102CA0001F910F910895FA01811101C0FB01099450
:102CB000CF93DF93C82FD62F0E947D118C1740F041
:102CC0000E947D118D1720F4DF91CF910C94601537
:102CD0008C2FDF91CF910C9470150F931F93CF938E
:102CE0008C01FB01C281CC2309F465C00E94F5214F
:102CF0008272F801E25CFC45E431F10538F4EE56ED
:102D0000F14D0C941D2B0E947B15C0E08C2FCF91B0
:102D10001F910F9108954DE655E160E675E10E941F
:102D20005316F3CF40E655E16DE675E1F8CF49E083
:102D300053E16CEF72E1F3CF4CEF52E169E073E1E4
:102D4000EECF47E253E168E173E1E9CF48E153E1B7
:102D500067E273E1E4CF45E453E166E373E1DFCF7B
:102D600046E353E165E473E1DACF46E951E165E812
:102D700071E1D5CF45E851E166E971E1D0CF81E05D
:102D80000E947015C2CF65E082E00E945816BDCF48
:102D900068E086E0FACF6EE089E0F7CF64E18FE08B
:102DA000F4CF67E185E1F1CF88E1EACF62E289E122
:102DB000ECCF83E2E5CFC1E0A9CF2AB1342F3F7039
:102DC000A1E0B0E001C0AA0F3A95EAF72A2B2AB990
:102DD00042954F70E42FF0E022A14A2F4095422304
:102DE00032A1A32B5FB7F8949B01220F331F260F4C
:102DF000371F280F391F2817390741F45FBF87ECA9
:102E000090E00197F1F700C000000895FC01619186
:102E1000CF0178E0ABB9000000C067FF4BB9660F87
:102E2000000000C000C000C04BB900C07A9591F707
:102E3000E2CF43E90C94DD160F931F93CF93DF93FA
:102E4000C62FD42F022FFC0182818823C9F0609302
:102E5000B4020E9417249093B3028093B20280E2DE
:102E60008C0F883008F050C0C77081E001C0880F17
:102E7000CA95EAF7DF91CF911F910F910C94AB1A8D
:102E80001091B402161335C08091B2029091B30232
:102E90000E9423248436910560F5C0E2CD0F1D17F2
:102EA000B9F080E2810F883040F4177081E001C0F2
:102EB000880F1A95EAF70E94B21AC83048F481E0E8
:102EC0009D2F977001C0880F9A95EAF70E94AB1A60
:102ED000802F0E94981AC830B8F4D77081E001C0E2
:102EE000880FDA95EAF7DF91CF911F910F910C943B
:102EF000B21A80E28C0F883038F4C77081E001C0CC
:102F0000880FCA95EAF7EFCFDF91CF911F910F910C
:102F100008959C01CB01233F4CE5340731F190F437
:102F2000283DFCE53F07E9F0293D4CE5340769F110
:102F3000273D3C4579F426E241EE61EE0E941C17E4
:102F400080E00895253FFCE53F07B9F090F0263F6B
:102F50003C45B9F0FC0182818823D1F01092B40283
:102F6000089527E245EE65EEE9CF26E241EE60EEF8
:102F7000E5CF27E245EE64EEE1CF26E241EE62EED8
:102F8000DDCF27E245EE66EED9CF28E241E0EBCF78
:102F900081E00895CF93DF93EC01FB0182818823C8
:102FA00009F419C1C230FCE5DF07C0F1C6319CE568
:102FB000D90730F09E012A5F3C452930310570F574
:102FC0000E94AF229093260480932504C031ECE543
:102FD000DE0709F4CFC008F05BC0C8308CE5D80725
:102FE00009F4B6C088F5C430ECE5DE0709F4A8C0E2
:102FF000C0F4C2308CE5D80709F49CC08091250448
:103000008260C330DC4509F498C08091250490911A
:1030100026040E94BD220E94D71C80E0DF91CF9140
:103020000895809125048061C630ECE5DE0709F43F
:1030300084C0809125048860C730DC4508F47DC0D9
:1030400080912504806279C0CC308CE5D80709F4E2
:1030500089C070F4809125048C60CA30ECE5DE07ED
:1030600009F46BC008F478C0809125048E7F65C098
:10307000CE308CE5D80709F479C0809125048B7F88
:10308000CF30DC4508F459C0809125048F7E55C0AF
:10309000CB3FECE5DE0709F457C030F5C3318CE5D2
:1030A000D80709F46FC078F4C131ECE5DE0709F404
:1030B00065C0C231DC4509F0A8CF0E94D71C8091C1
:1030C00025048F773AC0C5318CE5D80709F462C072
:1030D00008F476C0809126048160CA3FDC4509F07F
:1030E00094CF8093260491CFCF3FFCE5DF0709F40E
:1030F0004DC088F4809126048D7FCD3F9CE5D90793
:1031000081F3809126048E7FCE3FDC4550F3809181
:1031100026048360E6CFC130FDE5DF0709F459C01E
:1031200008F444C080E0C230DD4509F06ECF0E9453
:103130003B236BCF8091250481608093250465CF6C
:10314000809125048460F9CF809126048260C9CFE4
:10315000809125048064F1CF0E94D71C80912504C2
:103160008068EBCF809125048D7FE7CF8091250487
:10317000877FE3CF809125048F7DDFCF8091250469
:103180008F7BDBCF80912504837FD7CF809126046E
:103190008C7FA7CF8091250482FB992790F921E0AD
:1031A000922790FB82F990FB83F9C7CF8091260488
:1031B000982F909591708E7F892B90FB81F991CFFC
:1031C0000E94D71C90912504892F97FB87F980587E
:1031D000B4CF81E0ACCF81E021CFCF93DF93EB017F
:1031E00086319C4511F50E94F5219A81992399F029
:1031F0008A7A91E009F490E09093B502811109C0B8
:1032000089E20E94D0210E94342280E0DF91CF9198
:10321000089585E3F6CF8091B502811104C089E25B
:103220000E94D721F0CF85E3FBCF81E0EFCF9093D1
:10323000BB028093BA020895E091BA02F091BB02FA
:10324000309721F00190F081E02D099480E00895FD
:10325000E091BA02F091BB02309721F00280F38135
:10326000E02D099408952091B8023091B9022817F1
:10327000390771F09093B9028093B802E091BA02D5
:10328000F091BB02309721F00680F781E02D099480
:1032900008952091B6023091B7022817390771F0CE
:1032A0009093B7028093B602E091BA02F091BB020C
:1032B000309721F00084F185E02D0994089585B7B9
:1032C000806885BF85B7806885BF08950895089593
:1032D0000C94661908950C946A190E945F190E9453
:1032E00067190C94681981E008950E940E240E94C9
:1032F000700A0E9482240E9485150C946B19BF925B
:10330000CF92DF92EF92FF920F931F93CF93DF93B1
:10331000CDB7DEB72A970FB6F894DEBF0FBECDBF8C
:103320000E947B0B0E947319882309F45EC08DEB09
:10333000C82E82E0D82E10E000E0B02E802F0E9430
:10334000D60BE82EF601F1906F01F81609F447C08C
:1033500080913D0381FD0E94DC0B9F2D9E2580E026
:10336000FF24F394292F2F21B1F18E83BF82EF2008
:1033700081E009F480E088870E9417248160782F1B
:103380009A8789874E815F8168858A850E94161A8F
:10339000F801E354FD4F8081F826F0820E94B815B1
:1033A0000E941C199091BC02891781F10E941C197E
:1033B0008093BC022A960FB6F894DEBF0FBECDBF35
:1033C000DF91CF911F910F91FF90EF90DF90CF9001
:1033D000BF900C94810E8F5FFF0C863019F60F5F43
:1033E0001F4F0A30110509F0A8CF8FEF89838A8318
:1033F0001B820E9417248160782F9D838C834981D2
:103400005A816B818D810E94161AC8CF2A960FB6F9
:10341000F894DEBF0FBECDBFDF91CF911F910F910A
:10342000FF90EF90DF90CF90BF900895CF93DF9300
:10343000CDB7DEB72B970FB6F894DEBF0FBECDBF6A
:103440004F83588769877A878B871E821D8285E024
:10345000FE013796DE01119601900D928A95E1F7F3
:1034600049815A816B817C818D819E812B960FB61B
:10347000F894DEBF0FBECDBFDF91CF910C94611FDA
:10348000FC01808191810C94A221CF93C82F8823C5
:1034900029F18CEF8C0F813AA0F46C2F80916D0193
:1034A00090916E010E945223882329F08C2F0E9454
:1034B000D7210E9434228C2F0E94D021CF910C94CE
:1034C000342280E28C0F883048F4C77081E001C05C
:1034D000880FCA95EAF70E94F821F0CFCF9108959E
:1034E000882329F19CEF980F913A20F40E94D7216C
:1034F0000C94342290E2980F983050F4877091E049
:1035000001C0990F8A95EAF7892F0E94FE21F0CF1A
:103510009BE5980F933020F490E080E00C943319F1
:10352000885A873120F490E080E00C94491908957E
:10353000CF93C82F0E94451AC93349F42FEF87EE65
:1035400093E0215080409040E1F700C000008C2FB4
:10355000CF910C94701A882321F00E94F8210C94CA
:1035600034220895882321F00E94FE210C943422F5
:103570000895BF92CF92DF92EF92FF920F931F9325
:10358000CF93DF936C01D62FC72FFC0115811295C5
:103590001F70028101110E9415220E94EE21E82E67
:1035A000882371F00023C9F080E28D0F8830A8F0E5
:1035B00082E00E947F220E94EE2191E0E82EE9261F
:1035C000BC2EB2949FE0B922FBE0FB15A8F1EB2DD5
:1035D000F0E0EA55F14D0C941D2BE12CF1CF1C2F9E
:1035E0001F70C07F11F01295107F0023A9F01123E6
:1035F00059F080E28D0F883010F0D11109C0812F71
:103600000E94F8210E9434228D2F0E94451A14C076
:10361000812F0E940822F6CF8D2F0E94701A11234D
:1036200059F080E28D0F883010F0D1112CC0812F1D
:103630000E94FE210E9434222B2D2850330B24306F
:10364000310520F40E941C190E94810EEE2009F41D
:1036500067C10E94EA2180FD63C1F60112820E94C7
:10366000E4210E946D20C6010E94B11C0E94E42149
:10367000DF91CF911F910F91FF90EF90DF90CF904E
:10368000BF900C948E20812F0E940E22D3CF2C2F1E
:103690002F70F22EC07FC03219F0F29480EFF82222
:1036A000DD2369F0D13049F1002391F1112351F16B
:1036B000F601858180FFA8CF8F70858323C000230A
:1036C00081F0111106C00E941B228F290E94AB1AA3
:1036D000B3CF1130C1F70E941B228F290E942122F3
:1036E000ABCF111106C00E942A228F2D0E94B21A60
:1036F000A3CF113009F4A0CFF6CF002329F0163064
:1037000008F09ACF8F2DE2CF153008F095CFEDCF8E
:10371000112359F3D93349F4FFEF27EE33E0F15089
:1037200020403040E1F700C000008D2F0E94701A49
:1037300083CF8C2F837009F041C001117DCF4D2FB5
:10374000429546954770440F440F0D2F0F7010E0BF
:1037500030E020E0042E04C0000F111F221F331F91
:103760000A94D2F760E070E0CB01D4FF0FC06FE0A5
:1037700070E080E090E004C0660F771F881F991FFB
:103780004A95D2F76095709580959095C695C695A7
:10379000C370602B712B822B932BC23049F058F4ED
:1037A000C13019F00E941F2047CF0E940D2044CF46
:1037B0000E94312041CF0E940B203ECF86950023EE
:1037C00011F08C2F8170882309F436CF4D2F42954C
:1037D00046954770440F440F0D2F0F7010E030E0F6
:1037E00020E0042E04C0000F111F221F331F0A9473
:1037F000D2F760E070E0CB01D4FF0FC06FE070E063
:1038000080E090E004C0660F771F881F991F4A95DB
:10381000D2F76095709580959095C695C695C370C2
:10382000602B712B822B932BC23049F058F4C1309E
:1038300019F00E94E42000CF0E94D220FDCE0E9409
:10384000F620FACE0E944720F7CECF70002329F051
:103850008C2F0E946D208D2F39CF8D2F0E94B21A90
:103860008C2F0E948E20E8CED23F89F160F4D03FA9
:10387000C9F0D13F29F1002309F442C01111C4CE8F
:103880008C2F8F7121C0D33F39F1D43FA1F7002392
:1038900069F1CF718C2F0E946D2063E08C2F0E9404
:1038A0006A22CACE002341F0153008F0C5CE8C2F15
:1038B0008F710E94B120C0CE163008F0BDCEF7CF78
:1038C0008C2F8F71002369F20E946D20B5CE8C2F52
:1038D0008F710023C9F3C5CF002329F08C2F8F717E
:1038E0000E945820A9CE0E945320A6CE81E00E94BB
:1038F0007F22123008F4A0CE82E00E947F229CCE6C
:10390000112359F0D93309F010CF8FEF97EEE3E090
:1039100081509040E040E1F706CF8C2F8F71A1CF0E
:10392000DF91CF911F910F91FF90EF90DF90CF909B
:10393000BF9008950F931F93CF93DF93EC0168819D
:1039400079818A810E94AC218C010E9408210E9409
:103950000A20B801CE01DF91CF911F910F910C94F5
:10396000B91ACF93DF93EC018B819C81892B29F0CD
:103970008881998189238F3F19F4DF91CF91089530
:10398000CE010E94990E8823C1F3CE010E949A1C99
:10399000CE01DF91CF910C94560E0E9415220E9409
:1039A00018220C9434220E94DE210C94CD1C0E941B
:1039B00005220C94D31CE92FE295EF70E250EE3013
:1039C00070F4F0E0EE54F14D0C941D2B803F19F093
:1039D00020F4883E20F481E00895843FE1F380E004
:1039E0000895883EC0F3813FD1F7F5CF93FB882738
:1039F00080F908950E94A2210C94DB1CCF93DF93E1
:103A000000D000D00F92CDB7DEB70F900F900F907F
:103A10000F900F90DF91CF910895CF93DF9300D057
:103A200000D000D0CDB7DEB726960FB6F894DEBF33
:103A30000FBECDBFDF91CF9108951F93CF93DF933A
:103A4000C091C80216E08091C9028C1304C0DF91B6
:103A5000CF911F910895D0E01C9FF0011D9FF00DA4
:103A60001124E653FD4F408151816281738184812D
:103A700095810E940D1D2196C770E5CF4091FA02F5
:103A80005091FB026091FC027091FD028091FE0258
:103A90009091FF020C940D1D1F93CF93DF938091A3
:103AA000FF02807FC1F48091FC028823A1F0809105
:103AB000C802C091C9026091FA027091FB02409164
:103AC000FD025091FE02D62FD723DA01A095B095C2
:103AD00016E0C81304C0DF91CF911F91089590E0C4
:103AE0004115510511F0DF3F31F401968770F1CF98
:103AF0002A0F3B1F17C0189FF001199FF00D1124CA
:103B0000E653FD4F21812713F0CF20812613EDCFFF
:103B100022812111EACF238134812417350740F314
:103B2000241B350B2436310500F72091FF022F703E
:103B300020612093FF0226E0289FF001299FF00DCD
:103B40001124E153FD4F80818F70806180838AEF63
:103B500092E00E94B11CDF91CF911F910C941D1D2A
:103B6000BF92CF92DF92EF92FF920F931F93CF936A
:103B7000DF93CDB7DEB761970FB6F894DEBF0FBE07
:103B8000CDBF7C0185E0F701DE011D9601900D920D
:103B90008A95E1F7D7014C9111965C911197129695
:103BA0000C9112978091FD029091FE02009709F40A
:103BB00069C12091FA023091FB02622F63236F3FAB
:103BC00009F460C11396CD90DC90B090FC02BB204C
:103BD00009F41EC1C816D906C8F1F601E81BF90B95
:103BE000CF0111E08436910508F010E08091FF02CA
:103BF000982F907F112309F4C6C091117FC0102F18
:103C0000351329C0241327C0011125C08F7080618E
:103C10008093FF020E943E1D8AEF92E00E94B11C39
:103C20008091FF02D70115968C93812F61960FB674
:103C3000F894DEBF0FBECDBFDF91CF911F910F91E2
:103C4000FF90EF90DF90CF90BF9008958095909572
:103C50008C0D9D1DC6CFCD2829F0852F84238F3F45
:103C600009F02CC180E0B82FB170DB2E80FF3CC082
:103C70008091C8022091C90236E0821315C04D8799
:103C80005E878D859E850E94A221292F22952F7007
:103C90002230F0F0243018F59F70F1F0F701958193
:103CA000907FD1F4D12C1EC090E0389FF001399F55
:103CB000F00D1124E653FD4F6181651306C060814C
:103CC000641303C0628106130FC001968770D5CFBD
:103CD0009F7011F0882331F3805E883018F3C7019C
:103CE0000E94B11C1D2DA1CF002309F49ECF80910D
:103CF000FF0281608093FF0210E097CF351315C05B
:103D0000241313C0011111C0D70115968C93C7015C
:103D10000E94B11C86E0F701AAEFB2E001900D927B
:103D20008A95E1F70E943E1D80CF4D875E878D8585
:103D30009E850E94FA1C882311F1002301F18091D5
:103D4000FF02803270F02091FA023091FB02388736
:103D50002F831986DB86CA868C87CE0107960E9440
:103D6000B11C86E0F701AAEFB2E001900D928A95AE
:103D7000E1F70E944C1D0E943E1D11E056CFC70185
:103D80000E94B11CFACF911113C07C2DD98AC88A28
:103D9000602F89890E94FE1C8AEF92E00E94B11C6C
:103DA00086E0EAEFF2E0DF011D928A95E9F7BACFEB
:103DB000351312C0241310C001110EC0F701858302
:103DC000C7010E94B11CEAEFF2E086E0DF011D921C
:103DD0008A95E9F71B2D29CF4D875E878D859E85B6
:103DE0000E94FA1C882359F2002349F28091FF02B5
:103DF000803208F4B6CF2091FA023091FB023A8368
:103E000029831B82DD82CC828E83CE010196A7CFCF
:103E1000C816D906C8F0F601E81BF90BCF0110E06F
:103E20008436910538F5102F002309F4A8CF3513F7
:103E300010C024130EC086E0F701AAEFB2E0019093
:103E40000D928A95E1F7F1CE809590958C0D9D1D90
:103E5000E6CF4D875E878D859E850E94FA1C811175
:103E600080CF8091FF0281608093FF02C7010E9492
:103E7000B11CDBCE7C2DD98AC88A602F89890E942B
:103E8000FE1C8ECF002309F47ACF4D875E878D8587
:103E90009E850E94FA1C182F882309F470CF86E0B3
:103EA000F701AAEFB2E001900D928A95E1F78AEF4F
:103EB00092E00E94401A0E944C1D34CF81E080277E
:103EC000D2CE1F93CF93DF93CDB7DEB72C970FB62B
:103ED000F894DEBF0FBECDBF4F83588769877A87BE
:103EE0008B879C87CE0107960E94B01D882369F0BE
:103EF0008A859B85892B39F04F815885842F8523AE
:103F00008F3F09F071C016E05FC086E0FE01379672
:103F1000DE01119601900D928A95E1F78A859B85C5
:103F2000892B89F38F81988589238F3F61F32091B5
:103F3000C90230E0C9010196877099274091C802F3
:103F40004817190671F40E94D71C1092C9021092EA
:103F5000C80286E0EAEFF2E0DF011D928A95E9F7F8
:103F6000D2CF96E0929FD001939FB00D1124A6531B
:103F7000BD4FFE01319601900D929A95E1F7809325
:103F8000C9020E941D1DBFCF819FC001112486530D
:103F90009D4F0E94B01D8823E9F0E091C8021E9F4A
:103FA000F0011124E653FD4F4081518162817381FC
:103FB000848195810E940D1D8091C80290E0019638
:103FC000877099278093C8028091C8029091C90296
:103FD0008913DACF2C960FB6F894DEBF0FBECDBF93
:103FE000DF91CF911F91089569857A858B859C8596
:103FF0000E940D1D88CF08950C94FB1F0E94FC1F8A
:1040000060932C0370932D0380932E0390932F03C2
:104010000C94CD1C08950C94FE1F0F931F930091D8
:104020002C0310912D0320912E0330912F03602B30
:10403000712B822B932B1F910F910C94FE1F0F93CA
:104040001F9300912C0310912D0320912E0330918A
:104050002F0360237123822393231F910F910C94CC
:10406000FE1F0F931F9300912C0310912D0320919D
:104070002E0330912F0360277127822793271F91EA
:104080000F910C94FE1F0C94FB1F0C9443200E9474
:104090004520609328037093290380932A0390930B
:1040A0002B030C94CD1C60E070E0CB010C944720F6
:1040B0000F931F9341E050E060E070E08A019B01A4
:1040C00004C0000F111F221F331F8A95D2F7C901A8
:1040D000B8011F910F910C9447200F931F9341E05B
:1040E00050E060E070E004C0440F551F661F771F6A
:1040F0008A95D2F78091280390912903A0912A03F1
:10410000B0912B038A019B01082B192B2A2B3B2BE7
:10411000C901B8011F910F910C9447200F931F9371
:1041200041E050E060E070E004C0440F551F661F9E
:10413000771F8A95D2F7CB01BA016095709580956B
:104140009095009128031091290320912A03309122
:104150002B0360237123822393231F910F910C94CF
:1041600047200F931F9341E050E060E070E004C0EF
:10417000440F551F661F771F8A95D2F78091280339
:1041800090912903A0912A03B0912B038A019B01EE
:10419000082719272A273B27C901B8011F910F912A
:1041A0000C9447200F931F9300912803109129032B
:1041B00020912A0330912B03602B712B822B932BA0
:1041C0001F910F910C9447200F931F930091280388
:1041D0001091290320912A0330912B03602371232E
:1041E000822393231F910F910C9447200F931F93C9
:1041F000009128031091290320912A0330912B0369
:1042000060277127822793271F910F910C944720D5
:104210000895E92FEE0FE90FEE0F8E0F982F97708C
:1042200041E001C0440F9A95EAF7869586958695F8
:1042300095E0899FF0011124E050FD4F30E020E02F
:1042400070E05191DF011197CB01022E02C09695CB
:1042500087950A94E2F781708195852784238527C5
:104260008C932F5F3F4F2530310559F70895E92F83
:10427000EE0FE90FEE0F8E0F982F977086958695AB
:10428000869525E0829FF0011124E050FD4F50E01B
:1042900040E080E0219130E0092E02C0369527955C
:1042A0000A94E2F721703327042E01C0220F0A94EA
:1042B000EAF7822B4F5F5F4F4530510559F708955C
:1042C000BF92CF92DF92EF92FF920F931F93CF9303
:1042D000DF938C01C0902803D0902903E0902A033B
:1042E000F0902B0380912C0390912D03A0912E032D
:1042F000B0912F03C82AD92AEA2AFB2ACFE1D0E0BD
:10430000BC2ED701C6010C2E04C0B695A795979573
:1043100087950A94D2F780FD0EC0219788F7B12CBB
:104320008B2DDF91CF911F910F91FF90EF90DF9038
:10433000CF90BF900895B8018C2F0E94EE0E019788
:1043400061F3EECFCF93DF93EC010E946021BE01B9
:10435000DF91CF910C94EE0E1F93CF93DF93EB017F
:104360009091C702992331F0CB01DF91CF911F913A
:104370000C94A221882379F0CB010E946021182F90
:10438000682FCE010E940921BE01812FDF91CF91BC
:104390001F910C94EE0ECB010E943721182FF4CF01
:1043A000682F80916D0190916E010C948823682F85
:1043B00080916D0190916E010C948A2380916D0122
:1043C00090916E010C948C23809130038595859596
:1043D00085950895809130038770089590913003FA
:1043E000977081E009F480E0089580913C0308957E
:1043F00090913C03892B80933C0308958095909184
:104400003C03982390933C03089510923C03089535
:1044100090913B03892B80933B0308958095909165
:104420003B03982390933B03089510923B03089518
:1044300010923A03089580913103089508950C94E1
:104440001E2290913103981721F0809331030C9430
:104450001F22089580913103882329F0109231039F
:1044600080E00C941F220895E0916D01F0916E019F
:1044700080913C038083E0916D01F0916E01808119
:1044800090913B03892B8083E0916D01F0916E0147
:10449000808190913A03892B8083909131039923F5
:1044A00081F0E0916D01F0916E018081892B808314
:1044B00080916D0190916E010E94402381110E94B4
:1044C0002A2280916D0190916E010C942819089513
:1044D0000C94672298E0899F90011124622B6093CD
:1044E00030030E946D2080913003859585958595D8
:1044F0000C9468221092300380E00C946822909112
:1045000030038095892380933003282F277071F41E
:10451000282F082E000C330B9217130639F08595BF
:10452000859585950E948E200C947A22089590E0BE
:1045300080E00E941F2E21E08C3E9E4F09F020E07B
:10454000822F089582E090E00C94112E83E090E099
:104550000C94112E682F83E090E00C94252ECF93BD
:1045600084E090E00E94112EC82F81E290E00E942A
:10457000112E982F8C2FCF910895CF93C92F682F8C
:1045800084E090E00E94252E6C2F81E290E0CF9194
:104590000C94252EAB01BC018FE090E00C94372EDB
:1045A000AB01BC0183E190E00C94372E60E070E039
:1045B000CB010C94D02260E070E0CB010E94CA22B3
:1045C0000C94D6226CEE7EEF90E080E00E94432EA9
:1045D00060E082E090E00E94252E60E083E090E0C1
:1045E0000E94252E10922C0310922D0310922E0360
:1045F00010922F0360E084E090E00E94252E60E09E
:1046000081E290E00E94252E60E085E090E00E942B
:10461000252E60E086E090E00E94252E6FEF87E077
:1046200090E00E94252E40E050E0BA0188E090E042
:104630000E94372E60E08DE090E00E94252E40E041
:1046400050E0BA0188E190E00E94372E60E087E1F7
:1046500090E00E94252E40E050E0BA018CE190E00D
:104660000E94372E60E080E290E00E94252E0C949C
:10467000DB220C94E222682F8EE090E00C94252E31
:104680009C012E5F3F4FAC01485F5F4F80E02417D5
:10469000350709F40895F90191919F019923B9F320
:1046A0008F5FF5CF662349F0FC0132960896219181
:1046B000261729F0E817F907D1F780E0089581E07F
:1046C00008959C01FC0132969FEF80E041914617CE
:1046D00051F09F3F19F4411101C0982F8F5F863030
:1046E000A9F79F3F09F40895290F311D97FD3A95C9
:1046F000F90162830895FC013296089621912613F0
:1047000003C0DF0111971C92E817F907B9F7089564
:104710000C9461230C947B23029626E0FC011192F9
:104720002A95E9F70895089508950C9494230E941A
:10473000952380912B04843049F110923E0388E147
:1047400090E020E40FB6F894A895809360000FBE27
:104750002093600080E00E94810E0E94952383B721
:10476000817F846083BF83B7816083BF789488959D
:1047700083B78E7F83BF0FB6F894A89580916000B1
:10478000886180936000109260000FBE08950895C4
:10479000CF930E9493230E947B0B0E94C723C0E00B
:1047A0008C2F0E94D60B811105C0CF5FCA30C1F794
:1047B000CF91089581E0FCCF08950C94DC230E94F2
:1047C000D71C0E941C190E94810E0C94DD231F929D
:1047D0001FB61F9211248F939F93AF93BF93809125
:1047E0003E03811113C08091210490912204A09175
:1047F0002304B09124044196A11DB11D809321048E
:1048000090932204A0932304B0932404BF91AF910A
:104810009F918F911F901FBE1F90189582E084BDBD
:1048200093E095BD9AEF97BD80936E0008952FB7E2
:10483000F8948091210490912204A0912304B091D6
:1048400024042FBF0895CF92DF92EF92FF920F932F
:104850001F932FB7F8944091210450912204609146
:104860002304709124042FBF6A017B01EE24FF24EE
:104870008C0130E020E0C016D106E206F30650F0CD
:10488000481B590BCA011F910F91FF90EF90DF90C9
:10489000CF90089541505109F3CF78941F921FB6DD
:1048A0001F9211248F939F93AF93BF938091210404
:1048B00090912204A0912304B09124040196A11D9B
:1048C000B11D8093210490932204A0932304B093FC
:1048D0002404BF91AF919F918F911F901FBE1F9095
:1048E000189587E797E7909301088093000888E17F
:1048F0009AE00FB6F894A895809360000FBE90934D
:104900006000FFCF0E949722811102C00E943923CC
:104910000E94A22280933D030E94AF22909326041E
:10492000809325040E94A622682F70E090E080E02A
:104930000C940B2080914703089508950895CF9318
:10494000DF93EC010E943926823011F0843039F572
:1049500081E08093E9008FEF9091E800815095FD10
:1049600006C095ED9A95F1F700008111F5CF809181
:10497000E80085FF14C050E040E068E070E0CE0140
:104980000E9456268091E8008E778093E80088E0A8
:10499000FE01AFE3B3E001900D928A95E1F7DF915C
:1049A000CF910895089580912A04811109C00E9431
:1049B000E6270E9443288091E20084608093E20011
:1049C000089510922A040895089508950C94DF2301
:1049D00042E061EC81E00C94622780912D048330E9
:1049E00009F45FC030F48130C1F1823009F49BC01A
:1049F00008958A3009F487C08B3009F46DC089307E
:104A000009F04EC080912C04813209F049C0809198
:104A1000300490913104892B09F042C08091E80064
:104A2000877F8093E8008091E80082FF35C09091F5
:104A3000F3008091F200029729F48091F1008B7FBE
:104A4000813021F48091F100809347038091E80048
:104A50008B778093E8000C94962780912C04813A00
:104A6000F9F48091E800877F8093E800809130041A
:104A700090913104892B61F468E08FE393E070E05A
:104A80000E94A5268091E8008B778093E800089526
:104A900060E090E080E0F3CF80912B048111C3CFE0
:104AA000089580912C04813AD9F780913004909137
:104AB0003104892BA9F78091E800877F8093E80073
:104AC0008091E80080FFFCCF809179018093F10014
:104AD0008091E8008E77BDCF80912C04813201F760
:104AE0008091300490913104892BD1F68091E800B7
:104AF000877F8093E8000E94962780912E04809300
:104B000079010C94D71C80912C04813249F6809154
:104B1000E800877F8093E8000E94962780912F0409
:104B200080934803089580912C04813A09F0B8CF0E
:104B30008091E800877F8093E8008091E80080FF03
:104B4000FCCF80914803C2CF84B7877F84BF0FB664
:104B5000F894A8958091600088618093600010921D
:104B600060000FBE80E890E00FB6F894809361007B
:104B7000909361000FBE0E946D190E94E6270E946B
:104B800043288091E20084608093E20078940E9440
:104B9000CC2A0E9475198FE691E00E941719809126
:104BA0002B04853019F00E947F19F9CF0E949723BA
:104BB00080912904882399F30E94C823882379F3DC
:104BC0000E944026ECCF0C94E525292F3327233073
:104BD0003105C9F058F421303105C9F122303105D1
:104BE000D9F190E080E030E020E020C021323105B2
:104BF00039F122323105A9F780E490E025E43AE06A
:104C0000672B79F713C099278130910599F00097A8
:104C100041F08230910589F0039719F7E3EEF9E04E
:104C200002C0EDE0FAE0849190E09F01FA01318347
:104C300020830895E9EFF9E0F6CFE9EEF9E0F3CF4C
:104C400089E090E023E23AE0672B59F6EFCF82E16A
:104C500090E023E33AE0EACF82E290E021E13AE01B
:104C6000E5CF80912B04843011F482E0089581E037
:104C7000089580914903811102C00C943126089552
:104C800080E189BD82E189BD09B400FEFDCF80913C
:104C9000D8008F7D8093D8008091E000826080935F
:104CA000E0008091E00081FDFCCF0895AF92BF92BB
:104CB000CF92DF92FF920F931F93CF93DF936C01FC
:104CC000EB018A010E94B527F82E811123C001153E
:104CD000110539F0F80180819181C81BD90BC80EEC
:104CE000D91EB12CA12C2097A9F08091E80085FD58
:104CF00022C08091E8008E778093E80001151105AD
:104D0000A1F0F80180819181A80EB91EB182A08224
:104D100085E0F82E8F2DDF91CF911F910F91FF909D
:104D2000DF90CF90BF90AF9008950E94B527882361
:104D3000D1F2F82EEFCFF60181916F018093F1004F
:104D40002197FFEFAF1ABF0ACECFFC01809132044A
:104D50009091330486179707A0F06115710529F427
:104D60009091E8009E779093E80090E061157105BE
:104D700051F4911108C08091E80082FF34C080E0B6
:104D80000895BC01F2CF80912B048823C1F18530B6
:104D9000C1F18091E80083FD30C08091E80082FD80
:104DA000EACF8091E80080FFE1CF8091F30020916D
:104DB000F200382F6115710519F02830310558F0CF
:104DC00091E02830310509F090E02091E8002E773D
:104DD0002093E800CBCF81918093F100615071095D
:104DE0002F5F3F4FE7CF80912B04882341F0853020
:104DF00041F08091E80083FFBECF81E0089582E01A
:104E0000089583E00895FC01809132049091330469
:104E100086179707A0F06115710529F48091E800C5
:104E20008E778093E80090E06115710551F491113F
:104E300008C08091E80082FF35C080E00895BC0181
:104E4000F2CF80912B048823C9F18530C9F180917C
:104E5000E80083FD31C08091E80082FDEACF8091B7
:104E6000E80080FFE1CF8091F3002091F200382F1D
:104E70006115710519F02830310558F091E028309E
:104E8000310509F090E08091E8008E778093E8008A
:104E9000CBCF84918093F1003196615071092F5FDF
:104EA0003F4FE6CF80912B04882341F0853041F0BD
:104EB0008091E80083FFBDCF81E0089582E00895EE
:104EC00083E00895982F973028F08F708093E90041
:104ED00081E008959093E900242F762F50E09817F1
:104EE00031F07091EC002091ED005091F00021FD27
:104EF00002C09F5FE8CF3091EB003E7F3093EB0024
:104F00003091ED003D7F3093ED003091EB0031604A
:104F10003093EB007093EC002093ED005093F00081
:104F20002091EE0027FDE5CF80E0089580912C04CC
:104F300087FF13C08091E80082FF06C08091E800DF
:104F40008B778093E80004C080912B048111F2CF0D
:104F5000089580912B048823D9F38091E80080FF85
:104F6000F8CF8091E8008E77ECCF2091E40030916B
:104F7000E50095E6A9012091EC00822F817020FFC9
:104F800006C08091E80080FF06C080E0089520916F
:104F9000E80022FD1AC080912B04882389F0853017
:104FA00089F08091EB0085FD0FC02091E4003091E5
:104FB000E50042175307F9F29150E1F684E00895B5
:104FC00082E0089583E0089581E008950E945428C6
:104FD0000E945C28E0EEF0E0808181608083E8ED53
:104FE000F0E080818F77808319BCA7EDB0E08C91D1
:104FF0008E7F8C9380818F7E808310922A04089507
:105000000F931F93CF93DF930E9454280E945C2834
:10501000C8EDD0E088818F77888388818068888315
:1050200088818F7D888319BC10922B0410922704ED
:10503000109229041092280400EE10E0F8018081FB
:105040008B7F808388818160888342E060E080E09C
:105050000E946227E1EEF0E080818E7F8083E2EEA5
:10506000F0E0808181608083808188608083F801A6
:1050700080818E7F8083888180618883DF91CF915A
:105080001F910F910895E8EDF0E080818F7E80837D
:10509000E7EDF0E080818160808384E082BF81E081
:1050A00080932A040C940028E8EDF0E080818E7F44
:1050B00080831092E20008951092DA001092E100CD
:1050C00008951F920F920FB60F9211242F933F93C2
:1050D0004F935F936F937F938F939F93AF93BF9300
:1050E000EF93FF938091E10082FF0BC08091E2007B
:1050F00082FF07C08091E1008B7F8093E1000E94D6
:10510000CB2A8091DA0080FF19C08091D80080FFFF
:1051100015C08091DA008E7F8093DA008091D900EB
:1051200080FF96C080E189BD82E189BD09B400FE9F
:10513000FDCF81E080932B040E94D3248091E10075
:1051400080FF19C08091E20080FF15C08091E200CD
:105150008E7F8093E2008091E20080618093E20084
:105160008091D80080628093D80019BC85E080933C
:105170002B040E94E5248091E10084FF2BC08091E4
:10518000E20084FF27C080E189BD82E189BD89B545
:10519000982F917080FFFBCF8091D8008F7D8093F6
:1051A000D8008091E1008F7E8093E1008091E20041
:1051B0008F7E8093E2008091E20081608093E20024
:1051C00080912704882309F449C084E080932B044C
:1051D0000E94E6248091E10083FF29C08091E200D3
:1051E00083FF25C08091E100877F8093E10082E00A
:1051F00080932B04109227048091E1008E7F80938E
:10520000E1008091E2008E7F8093E2008091E200D5
:1052100080618093E20042E060E080E00E946227CB
:105220008091F00088608093F0000E94E424FF9158
:10523000EF91BF91AF919F918F917F916F915F910E
:105240004F913F912F910F900FBE0F901F90189587
:1052500019BC10922B040E94E12470CF8091E300CE
:1052600087FD93E090932B04B3CF1F920F920FB65C
:105270000F9211242F933F934F935F936F937F93DC
:105280008F939F93AF93BF93CF93DF93EF93FF934E
:10529000D091E900DF708091EC00C82FC17080FDD3
:1052A000C0E81092E9008091F000877F8093F000C1
:1052B00078940E9479291092E9008091F00088602A
:1052C0008093F000CD2BCF70C093E900FF91EF9158
:1052D000DF91CF91BF91AF919F918F917F916F910E
:1052E0005F914F913F912F910F900FBE0F901F90A4
:1052F00018951F93CF93DF93CDB7DEB7AA970FB65C
:10530000F894DEBF0FBECDBF8CE294E02091F10097
:10531000FC012193CF01F4E084339F07B9F70E9489
:10532000ED248091E80083FF1EC180912C049091B0
:105330002D049A3008F017C1E92FF0E0E054F14D48
:105340000C941D2B803899F0823809F00CC18091A3
:1053500030048F70873008F006C18093E900809197
:10536000EB0085FB882780F91092E90006C0809148
:10537000280490912904911182609091E800977F10
:105380009093E8008093F1001092F1008091E80082
:105390008E77E5C0882309F4D3C0823009F0E3C0DA
:1053A00080912E048111D6C0809130048F702FEF30
:1053B000280F263008F0D7C08093E9002091EB0039
:1053C00020FFC8C0933031F48091EB00806280935D
:1053D000EB00C0C09091EB0090619093EB0021E056
:1053E00030E001C0220F8A95EAF72093EA0010927C
:1053F000EA008091EB008860EACF8111B4C010917F
:105400002E041F778091E3008078812B8093E30046
:105410008091E800877F8093E8000E949627809122
:10542000E80080FFFCCF8091E30080688093E30078
:1054300082E0111183E080932B0495C08058823064
:1054400008F091C080912E0490912F048C3D23E0B0
:105450009207A1F583E08A838AE289834FB7F894A3
:10546000DE01139620E03EE051E2E32FF0E050939E
:105470005700E49120FF03C0E295EF703F5FEF70AB
:105480008E2F90E0EA30C0F0C7968D939D932F5FEA
:10549000243159F74FBF8091E800877F8093E8005F
:1054A0006AE270E0CE0101960E94A5268091E80094
:1054B0008B778093E80057C0C096E7CF60913004A7
:1054C00070913104AE014F5F5F4F0E94E325BC0134
:1054D000892B09F448C09091E800977F9093E800E9
:1054E00089819A810E940327E1CF8038E1F580917C
:1054F000E800877F8093E800809127048093F10083
:1055000045CF811130C090912E04923060F580918A
:10551000E800877F8093E800909327040E949627F5
:1055200080912704882311F084E005C08091E30076
:1055300087FDFACF81E080932B040E94E82413C0FA
:1055400080912E04813079F481E0933009F080E07D
:10555000809329041092E9008091E800877F80936E
:10556000E8000E9496278091E80083FF0AC080919E
:10557000E800877F8093E8008091EB008062809351
:10558000EB00AA960FB6F894DEBF0FBECDBFDF9139
:10559000CF911F9108950895CF9380912B04882374
:1055A000A1F0C091E900CF709091EC00892F81703B
:1055B00090FD80E8C82B1092E9008091E80083FDFF
:1055C0000E947929CF70C093E900CF91089587FB9D
:1055D000082E062687FD819567FD61950E94232B85
:1055E0000EF4919507FC81950895AA1BBB1B51E110
:1055F00007C0AA1FBB1FA617B70710F0A61BB70B43
:10560000881F991F5A95A9F780959095BC01CD01E7
:10561000089597FB072E16F4009407D077FD09D064
:105620000E94F52A07FC05D03EF4909581959F4F86
:105630000895709561957F4F0895EE0FFF1F0590B7
:10564000F491E02D0994991B79E004C0991F9617F5
:1056500008F0961B881F7A95C9F780950895FC017C
:105660004150504030F001900616D1F73197CF01EC
:105670000895882799270895FB01DC0104C08D91C6
:105680000190801921F441505040C8F7881B990BB4
:1056900008956817790768F4FB01DC01E40FF51F32
:1056A000A40FB51F02C002900E9241505040D8F78F
:1056B00008950C946F2DDC0101C06D934150504052
:1056C000E0F70895FB01DC0101900D920020E1F765
:1056D0000895AEE0B0E0EFE6FBE20C94672E0D8992
:1056E0001E898F89988D26E02C831A83098397FF62
:1056F00002C080E090E801979E838D83AE01455EF5
:105700005F4F698D7A8DCE0101960E94992B4D8154
:105710005E8157FD0AC02F813885421753070CF46C
:105720009A01020F131FF80110822E96E4E00C94E8
:10573000832EABE0B0E0EFE9FBE20C94592E7C0144
:105740003B018A01FC0117821682838181FFB9C166
:105750009AE0292ECE0101965C01F7019381F301B5
:1057600093FD859193FF81913F01882309F446C100
:10577000853239F493FD859193FF81913F01853204
:1057800029F4B70190E00E94832DE7CF912C412CA2
:10579000512CFFE1F51538F08B3209F188F4803295
:1057A00001F1833221F157FC3AC020ED280F2A3055
:1057B00040F556FE1FC0929C200D1124922E06C06B
:1057C0008D3291F0803379F7689450F8F30193FDAE
:1057D000859193FF81913F018111DBCF20C06894B7
:1057E00051F8689452F8F2CF689453F8EFCF689468
:1057F00054F8ECCF429C200D1124422E689455F8A9
:10580000E5CF8E3229F456FCF9C0689456F8DECF05
:105810008C3619F4689457F8D9CF8836B9F2982F96
:105820009F7D95549330C0F08336A1F18337C1F149
:10583000833509F05BC0F801C190D1908F01692DCB
:1058400070E056FC02C06FEF7FEFC6010E94642D2E
:105850004C01689457F80AC00C5F1F4F2FE329834F
:1058600088248394912C6501E89457F853FC04C074
:105870004814190409F018F5342C8114910431F5F9
:10588000332009F46ACFB70180E290E00E94832DB3
:105890003A94F6CFF801808189830E5F1F4FE0CFE5
:1058A000F801C190D1908F01692D70E056FC02C0C3
:1058B0006FEF7FEFC6010E94782D4C01D5CFB70165
:1058C00080E290E00E94832D4A94D2CFF60157FCEB
:1058D000859157FE81916F01B70190E00E94832D61
:1058E00031103A94F1E08F1A9108C7CF843619F03D
:1058F000893609F074C0F80157FE6AC06191719150
:10590000819191918F01252D2F76D22E97FF09C07D
:1059100090958095709561957F4F8F4F9F4F6894BC
:10592000D7F82AE030E0A5010E94B32DC82ECA188E
:105930008C2C5D2CD6FE0CC0E89450F8C91440F4B1
:10594000D4FE05C0D2FC03C0FD2DFE7E5F2E892C47
:1059500054FE8FC0FE01EC0DF11D8081803309F0F3
:1059600081C0252D297E522E852D8870382E53FC1E
:105970008FC050FE89C09C2C841418F44C0C942CBD
:10598000981854FE8BC0B70180E390E00E94832DED
:1059900052FE09C088E790E051FE02C088E590E021
:1059A000B7010E94832DC91408F484C0CA94D12C75
:1059B0009FEFC91AD90ACA0CDB1CF60182916F014C
:1059C000B70190E00E94832DAC14BD04B1F758CF0D
:1059D00061917191072E000C880B990B93CFD52CF8
:1059E000E894D4F82AE030E0853739F1952D997F95
:1059F000D92E8F3601F148F48835A9F0F701868158
:105A000097812B96E2E10C94752E803749F0883708
:105A1000A9F7D4FE02C06894D2F820E130E00DC0AE
:105A20006894D4F8F6CF54FE03C0E92FE660DE2E6A
:105A300020E132E002C028E030E0F801D7FE0DC0DE
:105A400061917191819191918F01A5010E94B32D76
:105A5000C82ECA18E894D7F86BCF6191719190E085
:105A600080E0F2CF52FC02C083947ECF8394839473
:105A70007BCF852D867809F477CFF6CFB70180E20A
:105A800090E00E94832D83948414C0F3312C79CF4D
:105A9000342C3818841408F474CFF8CF852D867808
:105AA00009F481CF8BE251FE80E257FC8DE2B70111
:105AB00090E077CFB70180E390E00E94832D9A9425
:105AC00072CF8FEF9FEF9DCFFC010590615070402A
:105AD0000110D8F7809590958E0F9F1F0895FB01B8
